:100000000C949C010C94E3010C94E3010C94000308
:100010000C94E3010C94E3010C94E3010C94E301D0
:100020000C94E3010C94E3010C94851A0C94571B77
:100030000C9401160C94E3010C94E3010C94E3017D
:100040000C94E3010C94E3010C94E3010C94E301A0
:100050000C94E3010C9469160C94E3010C94E301F5
:100060000C94E3010C94E3010C94E3010C94E30180
:100070000C94E3010C94E3010C94E3010C94E30170
:100080000C94E3010C94E3010C94E3010C94E30160
:100090000C94E5010C94E3010C94E3010C94E3014E
:1000A0000C94E3010C94E3010C94E30109070B07A2
:1000B00016070D070F0711071307150718071A076B
:1000C0001C0727071E0720072207240726072907E2
:1000D000B00CB00CE20CE20C4E0E4E0E4E0E4E0E5C
:1000E000220D4E0ECF0DCF0D3E0E4E0E4E0E470E74
:1000F000DC0DDC0DDC0DDC0DDC0DDC0DDC0DDC0DB8
:10010000DC0DDC0DDC0DDC0DDC0DDC0DDC0DDC0DA7
:10011000EB0DF90D000E070E110ED30ED30EE50EEA
:10012000E50EDC0EE50EE50EE50ED30ED30EE10E68
:10013000E50EE50EE10EC41BEB1BDD1CEB1BDD1C0D
:10014000371C5A1CDD1CB01CBF1C290014001A00EF
:1001500008001500170000002B000400160007001F
:1001600009000A000000E1001D001B000600190044
:100170000500000000000000000001532C00E0001A
:1001800000002800130012000C0018001C000000E2
:10019000340033000F000E000D000B000000E500DE
:1001A0003800370036001000110000000000000089
:1001B000000002532A00E40000002900230024006C
:1001C00025002600270000002B001E001F00200035
:1001D000210022000000E1000000000000000000FB
:1001E0000000000000000000000001002C00E00002
:1001F00000002800000000000000000000000000D7
:10020000000000004F005200510050000000E500C7
:10021000000063000000000000000000000000007B
:10022000000000002A00E400000029002F00260240
:100230002D003500000000002B001E021F022002CE
:10024000210222020000E10000000000230224023B
:100250002502000000000000000000002C00E0006B
:1002600000002800300027022E00310000000000AE
:10027000000000004F005200510050000000E50057
:10028000000000000000000000000000000000006E
:10029000000001002A00E400000004033000000018
:1002A0000C03430072006B00620064000000100346
:1002B00066006F006F007300740061006E00000044
:1002C0000403090409022200010100A0FA09040044
:1002D0000001030101000921110100012240000772
:1002E00005810308000A1201100100000008EDFE5C
:1002F000603001000102030105010906A1010507A3
:1003000019E029E71500250195087501810295017D
:1003100075088101050819012905950575019102E6
:100320009501750391010507190029FF150026FFA6
:1003300000950675088100C011241FBECFEFDAE0DA
:10034000DEBFCDBF04B603FE27C08091130290919B
:100350001402A0911502B09116028730904BA7406D
:10036000B04BD1F4109213021092140210921502A5
:100370001092160214BE84B7877F84BF0FB6F8941C
:10038000A895809160008861809360001092600061
:100390000FBEE0E0F8E3099511E0A0E0B1E0E0ED88
:1003A000FAE302C005900D92A833B107D9F722E015
:1003B000A8E3B1E001C01D92A331B207E1F70E94AA
:1003C000BC170C94661D0C9400001F920F920FB680
:1003D0000F9211248F939F93EF93FF938091B90015
:1003E000887F803869F038F48823C9F18036C9F5F0
:1003F0001092380136C0883A09F1883BF9F031C0D3
:1004000080913801811111C08091BB008093390126
:1004100080913901803120F01092390180E001C0D3
:1004200081E091E0909338011DC0E0913901F0E046
:100430008091BB00E051FE4F808308C0E0913901FC
:10044000F0E0E051FE4F80818093BB008091390144
:1004500090E001968F7099278093390102C0109225
:10046000BC0081E09091BC0095688295880F880F50
:10047000807C892B8093BC00FF91EF919F918F919D
:100480000F900FBE0F901F9018958EE14A9B02C0EF
:100490008150E1F74A9BFECF08955A9880E28A95F1
:1004A000F1F75A9A0895FC014AE04A95F1F730E0D5
:1004B00090E080E021E0961779F040E14A95F1F76D
:1004C000880F4A9B02C08160322700C0000040E1D3
:1004D0004A95F1F79F5FEFCF90E19A95F1F729B137
:1004E00000C0000040E14A95F1F722FB992790F9FE
:1004F00093272081920F90830895EF92FF920F939C
:100500001F93CF93DF931F92CDB7DEB7F62E1982DC
:10051000E82E8C01802F8E198F1558F40E94450209
:1005200068E0CE0101960E945302F80181938F0189
:10053000F1CF81E09981911180E00F90DF91CF910F
:100540001F910F91FF90EF90089590933C0180933D
:100550003B0160933A01529A5A9A089590933C0154
:1005600080933B0160933A0152985A9AEA9AE9E6DD
:10057000F0E080818F7C80830895615091E001C01C
:10058000990F6A95EAF720E031E0992361F0492F4D
:10059000482319F05A9A232701C05A9840E24A95F5
:1005A000F1F79695F2CF222311F05A9A01C05A988A
:1005B00080E28A95F1F75A980895EF92FF920F938F
:1005C0001F93CF93DF931F92CDB7DEB7162F082F5F
:1005D0007C018E2D801B811758F4F70181917F01DA
:1005E00089830E944D0268E089810E94BD02F1CF9B
:1005F0000F90DF91CF911F910F91FF90EF90089591
:100600001F920F920FB60F9211240F931F932F93E7
:100610003F934F935F936F937F938F939F93AF938A
:10062000BF93EF93FF93CF93DF931F92CDB7DEB7C6
:1006300019820E94450267E0CE0101960E94530292
:10064000382F369536953695932F96959570232F9E
:100650002570920F292F2370969596958770920F8B
:10066000891348C08981811145C080913A0183175F
:1006700008F440C080E18A95F1F75A9A529AA2E0B4
:10068000AA95F1F700C000913B0110913C01B8E040
:100690003B9F000D111D11245A98F80165816623B6
:1006A00021F0868197810E94DD020E944D02F0E1D7
:1006B000FA95F1F75A9852985A9A80E18A95F1F78B
:1006C000D80112966C911297662369F013968D915A
:1006D0009C9114970E947D02D801ED91FC918111AB
:1006E00005C082E004C0D801ED91FC9188E08083D0
:1006F0000E9445020F90DF91CF91FF91EF91BF9142
:10070000AF919F918F917F916F915F914F913F91A9
:100710002F911F910F910F900FBE0F901F90189562
:100720000F931F93CF93DF9320913A0130E0281766
:1007300039070CF471C09C0193E0220F331F9A9586
:10074000E1F7C0913B01D0913C01C20FD31FF89457
:10075000529A5A9845E04A95F1F70000982F9695DD
:1007600095708570890F982F937086958695890F5F
:100770008901082B0E944D0284E08A95F1F700C0A0
:1007800067E0802F0E94BD0240E14A95F1F7529840
:100790005A9A4A9902C000C0FCCF87E090E04A9B79
:1007A0000EC0019751F4529A5A9AE881F98181E07A
:1007B0008083789481E090E031C000C0F0CF6D81FB
:1007C000662381F08E819F810E947D0281110AC083
:1007D000529A5A9AE881F98182E08083789482E083
:1007E00090E01CC00E94450280E28A95F1F75A9879
:1007F000529A40E14A95F1F76A81662321F08B8194
:100800009C810E94DD020E944D02E881F9811082E4
:10081000789480E090E002C084E090E0DF91CF9196
:100820001F910F910895A0E3B1E041E050E08D9158
:10083000E82FE295EF70F0E021A18F70BA0102C0BD
:10084000660F771F8A95E2F7CB01962F909592233A
:1008500091A392A1892B82A371E0A433B70739F742
:100860000895089508950C9432048091E301836003
:1008700088608093E3010E941304A9E2B1E041E0A3
:1008800050E08D91E82FE295EF70F0E021A18F709C
:10089000BA0102C0660F771F8A95E2F7CB01962F47
:1008A0009095922391A392A1892B82A371E0A0330A
:1008B000B70739F7559A209A5D9A289AADE3B1E0C7
:1008C000E5E4F1E088E08E0F11921D928E13FCCFCB
:1008D0000E94C60580934D010C9437069F92AF92FB
:1008E000BF92CF92DF92EF92FF920F931F93CF931D
:1008F000DF9380910101811103C004E010E002C088
:1009000000E010E0A801435C5E4F7A01EA0180E359
:10091000C82E81E0D82EAA24A394B12C25E0922ED3
:1009200084E3C81681E0D80609F448C0F601819135
:100930006F01E82FE295EF70F0E021A18F70A50123
:1009400002C0440F551F8A95E2F7CA01922F982BD7
:1009500091A392A18095892382A350EA5A95F1F739
:10096000E9E2F1E020E040E050E03191A32FA295D0
:10097000AF70B0E090968C9190E03F7002C095957A
:1009800087953A95E2F780FD07C0C501042E01C0A6
:10099000880F0A94EAF702C080E090E0282B4F5FAE
:1009A0005F4F4730510509F78881821719F0288376
:1009B000909200010E9413042196B2CF8091000111
:1009C0008823E1F0815080930001882339F0EFE91A
:1009D000FFE03197F1F700C0000010C080E090E028
:1009E000FC01E00FF11FEB5BFE4FD701A80FB91F11
:1009F0002C91208301968430910591F781E0DF915D
:100A0000CF911F910F91FF90EF90DF90CF90BF900B
:100A1000AF909F900895CF93DF9320910101211112
:100A200003C0C0E0D0E002C0C4E0D0E00E94F00506
:100A3000009721F00297A1F4289812C0289ACB5B66
:100A4000DE4F8091580190915901A0915A01B091C7
:100A50005B0188839983AA83BB8380E090E002C016
:100A600081E090E0DF91CF9108950E946E04809123
:100A70000101811103C0E4E0F0E002C0E0E0F0E039
:100A8000EB5BFE4F20E030E080E0D901A85ABE4F7A
:100A90004C919191491381E09C932F5F3F4F2430FB
:100AA000310599F790915101890F80935101089573
:100AB000CF93DF9380914D01882309F440C00E94B9
:100AC0006E0480910101811103C0C4E0D0E002C036
:100AD000C0E0D0E0CB5BDE4F44E050E0BE0184E5F7
:100AE00091E00E94171D488159816A817B81409362
:100AF00054015093550160935601709357010E9421
:100B00000B05892BC1F05D9880914E018F5F80931A
:100B10004E01863070F180910101811103C0E0E047
:100B2000F0E002C0E4E0F0E0EB5BFE4F10821182E7
:100B3000128213821EC05D9A10924E011AC00E944A
:100B4000350580910101811103C080E090E002C071
:100B500084E090E0FC01EB5BFE4F4091540150912A
:100B60005501609156017091570140835183628312
:100B700073830E943F0681E0DF91CF910895E82FB3
:100B8000F0E0EB5BFE4F808108950895E8EDF0E022
:100B90008081806180838AE18A95F1F700C080912D
:100BA000D900817008950E94C605809301010E94BA
:100BB000C605882319F00E94E40502C00E94EA05D8
:100BC000789408950C94D30563E070E082E091E09E
:100BD0000C94A50263E070E082E091E00C94AE0218
:100BE0000F931F93CF93DF938C0190911B01809102
:100BF0001A01981761F082E090E00E949003EC01E6
:100C0000892B39F480911A0180931B0102C0C0E046
:100C1000D0E0012B49F480914F0190915001892B34
:100C200019F480E090E002C081E090E00E9490031F
:100C3000892B49F48091510180931A01109250013F
:100C400010924F0106C081E090E090935001809394
:100C50004F01CE01DF91CF911F910F9108950C9418
:100C600035060C94310481E0089581E008950E94D6
:100C70000015811102C00E946E150C9431060C946F
:100C8000330408950C9441060C94420608950E9482
:100C9000C10E0E9446062FEF84E39CE02150804065
:100CA0009040E1F700C0000087E797E790930108C4
:100CB000809300080C948F16FF920F931F93CF938D
:100CC000DF938C01FC01C081D1818091720181117F
:100CD00013C08281882349F0CE010E94F313F82EBD
:100CE000682FCE010E94981304C0CE010E94C71342
:100CF000F82EBE018F2D04C0CE010E94F313BE0159
:100D00000E94DD07EC01B8010E942F06882309F438
:100D100049C1C63DFCE5DF0709F4ABC0B0F4C531FD
:100D2000ECE5DE0768F4C230FCE5DF0708F04FC0F1
:100D3000C1158CE5D80701F1C130DC4529F125C189
:100D4000C631DC4509F4FAC020C1CB3D8CE5D8079B
:100D500071F150F4C73DFCE5DF0709F4ADC0C83DB3
:100D6000DC4509F4D0C011C1CC3DECE5DE0731F122
:100D7000CD3DDC45A1F009C1F8018281882309F449
:100D800011C10E9447060EC1F8018281882309F42F
:100D900009C18091E30181608093E30103C1F801FF
:100DA0008281882309F4FEC00E946E15FBC0F80101
:100DB0008281882309F4F6C080E006C0F8018281B0
:100DC000882309F4EFC082E00E944818EBC0F801C4
:100DD0008281882309F4DEC00E940015811102C0BF
:100DE0000E946E150E94131590E090930502809367
:100DF0000402FE01E350FC45E231F10530F4EA5A09
:100E0000FF4F809104020C94111D809104028160B7
:100E100027C0826025C0846023C0806121C08062B9
:100E20001FC080641DC080681BC08460886018C0BB
:100E30008E7F16C08D7F14C08B7F12C08F7E10C036
:100E40008F7D0EC08F7B0CC08F770AC08B7F877F12
:100E500007C087FB222720F991E0922790FB87F9B2
:100E600080930402809104020E9417150E94C10E13
:100E700099C0F8018281882351F0109261010E948B
:100E8000331690935E0180935D0182E022C08091D1
:100E9000610181110FC080915D0190915E010E94FE
:100EA0003F16883C910530F486E20E947D0B86E275
:100EB0000E94400C82E024C0F8018281882361F006
:100EC000109262010E9433169093600180935F013B
:100ED00080E20E946C0C66C08091620181110FC09B
:100EE00080915F01909160010E943F16883C9105BE
:100EF00030F487E20E947D0B87E20E94400C80E282
:100F00000E94730C4FC0F80182818111D9CF80916A
:100F100062018111F4CF80915F01909160010E9484
:100F20003F16883C910558F780E20E94730C88E2D6
:100F30000E947D0B88E20E94400C34C00E94C414C1
:100F4000282FF801828140911C0150911D018823B6
:100F500079F02A7A91E009F490E090935C01911184
:100F600002C069E201C065E3CA010E94A2150AC07D
:100F700080915C01811102C069E201C065E3CA0190
:100F80000E94A4150E9491140DC081E0809361011C
:100F900080936201C801DF91CF911F910F91FF9063
:100FA0000C94330680E0DF91CF911F910F91FF9059
:100FB000089580E090E00895089597E0799FF0010A
:100FC000112498E3899FE00DF11D1124E60FF11D16
:100FD000EE0FFF1FE65BFE4F859194910895880FF9
:100FE000991FFC01E656FD4F859194910895CF938A
:100FF000DF930E94DD070E94A809EC01811520E51E
:101000009207F0F5811530E4930708F020C1883E7F
:10101000910500F5803E910508F096C1883A91054A
:1010200070F4853A910508F09AC08130910509F471
:101030008BC108F43CC1049708F086C138C18F3BCE
:10104000910508F497C0803C910508F430C1805C9C
:101050009109EFC08115904258F4C11581E0D8077D
:1010600008F072C1C03FD10508F421C1D0656CC140
:10107000C11590E3D90708F0E0C0CE019F70D9C038
:10108000811525E5920708F043C0811534E59307E3
:1010900008F0F4C0811542E5940708F5C11581E513
:1010A000D80708F0D7C02C2F237081E090E002C051
:1010B000880F991F2A95E2F79C689E0174E0369587
:1010C00027957A95E1F72370922BCF70C695C69538
:1010D00030E2C39FE0011124C82BD92B35C186957E
:1010E00086959E0123703327C115D34508F0B7C0FC
:1010F00040E2849FC0011124C1E0D0E002C0CC0FC7
:10110000DD1F2A95E2F78C2B9D2BEC01DC681CC1BE
:10111000811529E5920778F4811538E5930708F0E1
:10112000B2C08115964508F0C2C0CF71DD27DC2F13
:10113000CC27D06209C1C1158AE5D80708F4A8C038
:10114000CE0190568115904208F0B1C08D2F8F715D
:101150000E94250ADD27D0628F71D82BF5C0853A11
:10116000910509F4A7C0863A910509F0A6C0C2E826
:10117000D0E4EAC0883A910509F4A2C0893A910501
:1011800009F4A1C08A3A910509F4A0C08B3A9105EF
:1011900009F49FC08C3A910509F49EC08B3B9105E0
:1011A00009F49DC08C3B910509F49CC08D3A9105D2
:1011B00009F49BC0803B910509F49AC08E3A9105D1
:1011C00009F499C08F3A910509F498C0813B9105C3
:1011D00009F497C0823B910509F496C0833B9105C1
:1011E00009F495C0843B910509F494C0853B9105B1
:1011F00009F493C0863B910509F492C0873B9105A1
:1012000009F491C0883B910509F490C0893B910590
:1012100009F48FC08D3B910509F48EC08E3B91057A
:1012200009F48DC08A3B910509F48CC0C0E0D4E478
:101230008BC00E94EF07EC0187C0CE019927D3FF36
:1012400003C0EC01D86C80C0EC01D06C7DC0DF70B5
:10125000D06A7AC0DC2FCC27C16FD06A75C040E25B
:10126000849FC0011124C1E0D0E002C0CC0FDD1F7B
:101270002A95E2F7C82BD92BDA6866C0D82FCC277D
:10128000C46FD06A61C0D82FCC27C06FD06A5CC051
:101290008C2F8F70806E90E0906A24E0D695C79571
:1012A0002A95E1F7CF709C013C2BE9014DC0C0E0CD
:1012B000D0E04AC0C1E8D0E447C0C3E8D0E444C0AD
:1012C000C2EED4E441C0C9EED4E43EC0CAEED4E4D8
:1012D0003BC0C5EBD4E438C0C6EBD4E435C0C3EBA7
:1012E000D4E432C0C4EBD4E42FC0C7EBD4E42CC0A8
:1012F000CCECD4E429C0CDECD4E426C0C3E8D5E4DA
:1013000023C0CAE8D5E420C0C2E9D5E41DC0C4E9C1
:10131000D5E41AC0C1E2D6E417C0C3E2D6E414C0D3
:10132000C4E2D6E411C0C5E2D6E40EC0C6E2D6E4FB
:101330000BC0C7E2D6E408C0CFE6D4E405C0C0E7DE
:10134000D4E402C0CAE2D6E4CE01DF91CF91089581
:101350008238910549F1B0F48133910509F458C000
:1013600048F48932910509F44EC08A32910509F496
:1013700054C008958533910509F440C0893391051F
:1013800099F00895833E910529F138F4803E910546
:1013900091F0823E9105A1F00895863E9105F9F005
:1013A000873E910531F108952091040220FD3AC055
:1013B00021FD38C008958091040280FD35C032C0FF
:1013C0008091040282FF32C08091040284FD30C00B
:1013D00083EE39C08091040282FD28C0F5CF809150
:1013E000040283FF27C08091040284FD21C087EEA0
:1013F0002AC08091040283FD1DC0F5CF80910402B4
:1014000085FD1AC01BC08091040285FD17C014C061
:101410008091040286FD14C015C08091040286FDEF
:1014200011C00EC080EE0FC089E30DC082EE0BC06C
:1014300080E009C086EE07C089E205C085E303C0ED
:101440008AE201C081E390E008959091040292FF46
:101450000DC0282F2871283019F4877F846006C0BA
:10146000282F2471243011F48B7F886093FF0DC0E6
:10147000282F2871283119F4877E846106C0282F0F
:101480002471243111F48B7E886194FD877E089548
:1014900090936801809367010895E0916701F0914E
:1014A0006801309721F00190F081E02D099480E0EF
:1014B0000895E0916701F0916801309721F0028072
:1014C000F381E02D09940895209165013091660122
:1014D0008217930771F09093660180936501E09104
:1014E0006701F0916801309721F00680F781E02DC7
:1014F0000994089520916301309164018217930744
:1015000071F09093640180936301E0916701F09121
:101510006801309721F00084F185E02D0994089549
:1015200085B7806885BF85B7806885BF08950E94AC
:10153000900A0C94E20581E008950E942A160E9408
:1015400035040C94A016CF92DF92EF92FF920F9386
:101550001F93CF93DF93CDB7DEB72B970FB6F894D9
:10156000DEBF0FBECDBF0E9458050E949B0A8111AD
:1015700011C08FEF89838A831B820E94331681609A
:10158000782F9D838C8349815A816B818D810E9444
:10159000490B56C08AE6C82E81E0D82E00E010E044
:1015A000E02E802F0E94BF05F60141916F01F42EBD
:1015B000F82631F40F5F1F4F0830110589F7D9CF96
:1015C0009091E30191FF04C08B870E94C5058B8534
:1015D00020E030E04F2D50E0922FBA01022E02C0E1
:1015E000759567950A94E2F760FF24C02E83EF8219
:1015F00021E030E0690102C0CC0CDD1C9A95E2F7D5
:1016000090E08C219D21892B09F420E028870E94FD
:1016100033168160782F9A8789874E815F8168852C
:101620008A850E94490BF801E659FE4F8081C82641
:10163000C08206C02F5F3F4F2730310569F6BACF11
:10164000109169010E944D0A1817A1F00E944D0ADD
:10165000809369012B960FB6F894DEBF0FBECDBF05
:10166000DF91CF911F910F91FF90EF90DF90CF907E
:101670000C9444062B960FB6F894DEBF0FBECDBF78
:10168000DF91CF911F910F91FF90EF90DF90CF905E
:101690000895CF93DF93CDB7DEB72B970FB6F894AD
:1016A000DEBF0FBECDBF4F83588769877A878B8790
:1016B000DE01119686E0FD0111928A95E9F785E039
:1016C000FE01379601900D928A95E1F749815A8182
:1016D0006B817C818D819E810E9468112B960FB653
:1016E000F894DEBF0FBECDBFDF91CF910895FC010E
:1016F000808191810E9432140895882309F4BFC02B
:10170000682F8CEF860F813A38F480911C019091FC
:101710001D010E94A2150CC080E2860F883050F493
:10172000677081E001C0880F6A95EAF70E94C714CC
:101730000C9491148BE5860F833070F4653A29F090
:10174000663A31F083E890E005C081E890E002C09D
:1017500082E890E00C94640A88E5860F873108F0EF
:101760008EC0683A09F445C0693A09F445C06A3A3E
:1017700009F445C06B3A09F445C06C3A09F445C018
:101780006B3B09F445C06C3B09F445C06D3A09F464
:1017900045C0603B09F445C06E3A09F445C06F3A54
:1017A00009F445C0613B09F445C0623B09F445C0FA
:1017B000633B09F445C0643B09F445C0653B09F44B
:1017C00045C0663B09F445C0673B09F445C0683B2A
:1017D00009F445C0693B09F445C06D3B09F445C0B7
:1017E0006E3B09F445C06A3B09F445C080E090E0D7
:1017F00044C082EE90E041C089EE90E03EC08AEEA7
:1018000090E03BC085EB90E038C086EB90E035C0BF
:1018100083EB90E032C084EB90E02FC087EB90E048
:101820002CC08CEC90E029C08DEC90E026C083E8C1
:1018300091E023C08AE891E020C082E991E01DC0D8
:1018400084E991E01AC081E292E017C083E292E05D
:1018500014C084E292E011C085E292E00EC086E2FC
:1018600092E00BC087E292E008C08FE690E005C0EE
:1018700080E790E002C08AE292E00C947A0A089530
:10188000882349F1682F8CEF860F813A38F48091D4
:101890001C0190911D010E94A4150CC080E2860FCE
:1018A000883050F4677081E001C0880F6A95EAF7CC
:1018B0000E94CD140C9491148BE5860F833020F494
:1018C00080E090E00C94640A685A673120F480E06C
:1018D00090E00C947A0A0895882321F00E94C7149E
:1018E0000C9491140895882321F00E94CD140C9437
:1018F000911408954F925F926F927F92BF92CF9210
:10190000DF92EF92FF920F931F93CF93DF937C01AF
:10191000D62FC72FFC01158112951F70028101116E
:101920000E94E4140E948A14882379F0002369F04D
:1019300080E28D0F883048F082E00E9473140E948C
:101940008A1491E0B82EB92601C0B12CCC2EC294D5
:101950008FE0C822D12CF601E859FF4F0C94111DDD
:101960008C2F807FCF70882311F0C295C07F002319
:1019700099F0CC2309F46DC180E28D0F883010F00E
:10198000D11104C08C2F0E94C71403C08C2F0E9459
:10199000D7140E9491145DC18D2F0E94400CCC235E
:1019A00009F47CC180E28D0F883010F0D11104C0A1
:1019B0008C2F0E94CD1403C08C2F0E94DD140E9436
:1019C00091146CC18C2F807FCF70803211F0C29542
:1019D000C07FDD2319F0D130C9F022C0002371F09F
:1019E000112341F0113031F40E94FD148C2B0E9420
:1019F000F71454C10E94FD148C2B1DC0112319F043
:101A0000113009F44BC10E94FA141AC0002321F0CE
:101A1000163008F043C10EC0153008F03FC110C0A9
:101A2000002361F0112331F0F701858180FF11C19E
:101A30008F7085838C2F0E946C0C30C111111AC1DC
:101A40008C2FC6C08C2F837009F050C0011132C199
:101A50008D2F829586958770880F880F9D2F9F7098
:101A6000492E512C612C712C082E04C0440C551C9D
:101A7000661C771C0A94D2F7D4FF14C00FE010E064
:101A800020E030E0B901A80104C0440F551F661FD3
:101A9000771F8A95D2F7CB01BA0160957095809532
:101AA000909503C060E070E0CB01C695C695C37009
:101AB000D0E0C230D10561F0C330D10581F0642996
:101AC000752986299729219771F00E94AD12F2C0DD
:101AD00064297529862997290E94BF12EBC00E94AC
:101AE000AD12C301B2010E949B12E4C0002319F0A1
:101AF0008C2F817001C08695882309F4DBC08D2F5F
:101B0000829586958770880F880F9D2F9F70492E2C
:101B1000512C612C712C082E04C0440C551C661CE1
:101B2000771C0A94D2F7D4FF14C00FE010E020E035
:101B300030E0B901A80104C0440F551F661F771F8C
:101B40008A95D2F7CB01BA016095709580959095F2
:101B500003C060E070E0CB01C695C695C3704C2F02
:101B600050E04230510569F04330510589F0642955
:101B70007529862997294130510571F00E94731308
:101B800099C064297529862997290E94851392C0D6
:101B90000E947313C301B2010E9461138BC08D2F89
:101BA00090E0FC01E05EF109E531F10508F04DC07F
:101BB000E858FF4F0C94111DDF708C2F8F7100239C
:101BC00021F00E94FA128D2F36CF0E941B138D2F09
:101BD0000E94730C63C0002341F0153008F05EC012
:101BE0008C2F8F710E94401359C0163008F056C0D8
:101BF000F7CF002339F08C2F8F710E94FA124EC05C
:101C00000023C9F38C2F8F710E941B1347C0002340
:101C100029F08C2F8F710E94E51240C00E94E012C3
:101C20003DC0002349F0CF718C2F0E94FA1263E06F
:101C30008C2F0E946A1432C081E00E94731412300B
:101C400068F182E00E94731429C0002331F011234F
:101C500091F28D2F0E947D0B21C0112399F2D9336F
:101C600049F45FEF67EE73E0515060407040E1F778
:101C700000C000008D2F0E94400C10C04C2F4F70F0
:101C80006D2FC7010E94D9070E940C1217C04C2F5C
:101C90004F706D2FC7010E94DC0710C088E0C81686
:101CA000D10441F05CF0EAE0CE1AD108F2E0CF16A0
:101CB000D10420F40E944D0A0E944406BB20F1F09A
:101CC0000E94661480FD1AC0F70112820E946014FF
:101CD0000E94FA12C7010E948C0E0E946014DF91CC
:101CE000CF911F910F91FF90EF90DF90CF90BF9019
:101CF0007F906F905F904F900C941B13DF91CF916A
:101D00001F910F91FF90EF90DF90CF90BF907F9049
:101D10006F905F904F9008950F931F93CF93DF9331
:101D2000EC01888199812B813C81232BB9F09F3F65
:101D300011F48F3F99F0CE010E945C06882371F068
:101D4000688179818A810E943D148C010E949713D9
:101D50000E949812B801CE010E947A0CDF91CF91B7
:101D60001F910F9108950E94E4140E94F4140C94A2
:101D7000911480911C0190911D010E94A6150C9454
:101D8000B30E0E94D4140C94B90E0E943214E92FA1
:101D9000E295EF70F0E03297EE30F105B0F4E357E2
:101DA000FF4F0C94111D803F91F018F4803E68F4B1
:101DB0000EC0843F51F40BC0803E48F0813F29F4AF
:101DC00006C093FB882780F9089580E0089581E09C
:101DD0000895CF93DF9300D000D01F92CDB7DEB728
:101DE0000F900F900F900F900F90DF91CF9108956B
:101DF000CF93DF9300D000D000D0CDB7DEB72696CA
:101E00000FB6F894DEBF0FBECDBFDF91CF9108951E
:101E10001F93CF93DF93C091730116E080917401FB
:101E2000C81799F0D0E01C9FF0011D9FF00D112400
:101E3000EB58FE4F4081518162817381848195818D
:101E40000E94F80E2196C770E9CFDF91CF911F91C4
:101E500008954091A5015091A6016091A70170914C
:101E6000A8018091A9019091AA010C94F80E80918B
:101E7000AA0182958F7009F054C08091A701882330
:101E800009F44FC080917301A09174016091A50184
:101E90007091A6014091A8015091A901B6E08A175E
:101EA00009F43FC090E041155105C1F17F3F11F4A5
:101EB0006F3FA1F1B89FF001B99FF00D1124EB58CD
:101EC000FE4F218172132AC02081621327C0228114
:101ED000211124C0238134812417350710F42150A7
:101EE0003109241B350B283C3105C0F42091AA018F
:101EF0002F7020612093AA0126E0289FF001299FDE
:101F0000F00D1124E658FE4F80818F708061808330
:101F100085EA91E00E948C0E0C94080F0196877060
:101F2000BECF0895CF92DF92EF92FF920F931F934F
:101F3000CF93DF93CDB7DEB762970FB6F894DEBFCD
:101F40000FBECDBF8C0185E0F801DE011D9601902A
:101F50000D928A95E1F7D8014C9111965C911197F9
:101F600012966C9112971396CD90DC901497309145
:101F7000A5017091A6018091A8019091A9010097F7
:101F800009F46BC17F3F19F43F3F09F466C1E0904B
:101F9000A701EE2009F4C0C02091AA01C816D906F5
:101FA00028F0F601E81BF90BCF0104C0809590954D
:101FB0008C0D9D1DFF24F394883C910578F0F12C45
:101FC000207F09F0C6C07C2DD98AC88A89890E94E1
:101FD000E90E85EA91E00E948C0EB1C0822F807FCD
:101FE00009F046C0751314C0341312C0611110C03B
:101FF0002F7020612093AA010E94290F85EA91E0A9
:102000000E948C0E8091AA01D80115968C932EC047
:10201000CD2819F15F3F11F44F3FF9F0F62E611111
:102020001CC0809173012091740136E0821709F47D
:102030005AC090E0389FF001399FF00D1124EB5801
:10204000FE4F7181571306C07081471303C0728120
:10205000711103C001968770E9CFF62E662309F44B
:1020600027C18091AA0181608093AA01F12C20C12F
:10207000751308C0341306C0611104C08091AA0111
:10208000D801C3C04D875E878D859E856A8B0E946F
:10209000C50E6A898823E1F16623D1F12091AA0156
:1020A000822F82958F7090E0029774F08091A50145
:1020B0009091A60198878F831986DB86CA862C8724
:1020C000CE0107960E948C0E86E0F801A5EAB1E0E9
:1020D00001900D928A95E1F70E94370F0E94290F17
:1020E000FF24F394E5C04D875E878D859E850E9411
:1020F0003214292F22952F7030E0223031050CF058
:10210000CBC09F7009F0C5C0805E883008F4D0C095
:10211000C8010E948C0EE4CFC816D90608F453C03B
:10212000F601E81BF90BCF01883C910508F450C07B
:10213000F12C7C2DD98AC88A89890E94E90EE5EAAA
:10214000F1E086E0DF011D928A95E9F70E94290FF0
:10215000AFC0751314C0341312C0611110C0809148
:10216000AA01F8018583C8010E948C0E86E0E5EA89
:10217000F1E0DF011D928A95E9F7FE2C99C04D87A9
:102180005E878D859E856A8B0E94C50E6A8988232D
:1021900009F4BECF662309F4BBCF2091AA01822F98
:1021A00082958F7090E002970CF48ECF8091A501FC
:1021B0009091A6019A8389831B82DD82CC822E8333
:1021C000CE0101967FCF809590958C0D9D1DACCF53
:1021D000F62E662309F49CCF75132EC034132CC041
:1021E0002091AA0120FD1FC0822F82958F70D9F007
:1021F000D80115962C9315978F3049F08F5F982F43
:102200009295907F822F8F70892B15968C93C801A1
:102210000E948C0E86E0F801A5EAB1E001900D92D3
:102220008A95E1F793CF86E0F801A5EAB1E0019045
:102230000D928A95E1F73CC04D875E878D859E851E
:102240000E94C50E811140CF8091AA0181608093C8
:10225000AA01C8010E948C0E2BC0662309F458CF36
:102260004D875E878D859E850E94C50EF82E88233A
:1022700009F44ECF86E0F801A5EAB1E001900D9295
:102280008A95E1F785EA91E00E94770B0E94370F6B
:102290005DCF811139CF0CC0243031050CF038CF1F
:1022A0009F7009F431CFF8019581907F09F02CCF10
:1022B0008F2D62960FB6F894DEBF0FBECDBFDF91B3
:1022C000CF911F910F91FF90EF90DF90CF900895E5
:1022D0001F93CF93DF93CDB7DEB72C970FB6F8944B
:1022E000DEBF0FBECDBF4F83588769877A878B8744
:1022F0009C87CE0107960E94920F882369F08F81F8
:1023000098852A853B85232BF1F19F3F09F063C017
:102310008F3F09F060C037C086E0FE013796DE01CE
:10232000119601900D928A95E1F76F817885EA8583
:10233000FB85309741F17F3F11F46F3F21F12091F0
:10234000740130E0C90101968770992740917301AB
:1023500050E08417950709F447C069837A83FD83A9
:10236000EC8396E0929FD001939FB00D1124AB585F
:10237000BE4FFE01319601900D929A95E1F7809340
:1023800074010E94080F16E080917301909174010E
:102390008917C1F1189FC00111248B589E4F0E94CC
:1023A000920F882379F1E09173011E9FF0011124AF
:1023B000EB58FE4F40815181628173818481958108
:1023C0000E94F80E8091730190E001968770992722
:1023D00080937301D9CF4F81588569857A858B8524
:1023E0009C850E94F80ECFCF0E94C10E10927401FE
:1023F00010927301E5EAF1E086E0DF011D928A9513
:10240000E9F7C1CF2C960FB6F894DEBF0FBECDBF53
:10241000DF91CF911F910895EF92FF920F931F9339
:10242000CF93DF938C01892B09F46CC0F12CEE243F
:10243000E394E8012196F8018491843740F48430D4
:1024400008F051C0813081F0823019F15BC08537CE
:1024500009F444C0A8F19CE7980F903708F052C0E7
:102460008F770E94400C41C00E5F1F4FFE01C49148
:1024700080E28C0F883048F4C7708E2D01C0880F21
:10248000CA95EAF70E94E71414C08C2F0E947D0BB6
:102490002DC00E5F1F4FFE01C49180E28C0F88306B
:1024A00058F4C7708E2D01C0880FCA95EAF70E94B4
:1024B000ED140E9491141AC08C2F0E94400C16C07B
:1024C0000E5F1F4FFE01C491CC2381F08FE99FE086
:1024D0000197F1F700C00000C150F6CF0E5F1F4F0B
:1024E000FE01F49003C00E947D0B8E018F2D882386
:1024F00009F49FCFEFE9FFE03197F1F700C000004A
:102500008150F5CFDF91CF911F910F91FF90EF9008
:10251000089508950C9489120E948A126093D20142
:102520007093D3018093D4019093D5010C94B30E92
:1025300008950C948C120F931F930091D201109167
:10254000D3012091D4013091D501602B712B822BC6
:10255000932B1F910F910C948C120F931F9300914A
:10256000D2011091D3012091D4013091D501602383
:102570007123822393231F910F910C948C120F933C
:102580001F930091D2011091D3012091D401309179
:10259000D50160277127822793271F910F910C94F3
:1025A0008C1208950C94D1120E94D2126093CE0125
:1025B0007093CF018093D0019093D1010C94B30E0E
:1025C00060E070E0CB010C94D4120F931F9341E0B4
:1025D00050E060E070E08A019B0104C0000F111F11
:1025E000221F331F8A95D2F7C901B8011F910F919D
:1025F0000C94D4120F931F9341E050E060E070E020
:1026000004C0440F551F661F771F8A95D2F780912B
:10261000CE019091CF01A091D001B091D1018A015A
:102620009B01082B192B2A2B3B2BC901B8011F91A9
:102630000F910C94D4120F931F9341E050E060E08F
:1026400070E004C0440F551F661F771F8A95D2F7AC
:1026500040955095609570958091CE019091CF01F5
:10266000A091D001B091D1018A019B0108231923C7
:102670002A233B23C901B8011F910F910C94D41256
:102680000F931F9341E050E060E070E004C0440FFE
:10269000551F661F771F8A95D2F78091CE019091C2
:1026A000CF01A091D001B091D1018A019B010827EF
:1026B00019272A273B27C901B8011F910F910C94B4
:1026C000D4120F931F930091CE011091CF0120914E
:1026D000D0013091D101602B712B822B932B1F9154
:1026E0000F910C94D4120F931F930091CE0110916F
:1026F000CF012091D0013091D10160237123822339
:1027000093231F910F910C94D4120F931F93009158
:10271000CE011091CF012091D0013091D1016027DD
:102720007127822793271F910F910C94D41208953B
:1027300027E0929F800D1124A82FA695A695A69517
:10274000877051E001C0550F8A95EAF785E0A89F90
:10275000D001112420E030E070E0F901EA0FFB1F06
:10276000E555FE4F4081CB01022E02C0969587951C
:102770000A94E2F78170992781958427852384271D
:1027800080832F5F3F4F2530310539F7089527E0CB
:10279000929F800D1124682F669566956695982FF7
:1027A000977085E0689FB001112440E050E080E020
:1027B000FA01E60FF71FE555FE4F208130E0092EA4
:1027C00002C0369527950A94E2F721703327042E2C
:1027D00001C0220F0A94EAF7822B4F5F5F4F45300A
:1027E000510531F70895CF92DF92EF92FF920F9348
:1027F0001F93CF93DF938C01C090D201D090D3016F
:10280000E090D401F090D5018091CE019091CF015C
:10281000A091D001B091D101C82AD92AEA2AFB2A75
:10282000CFE1D0E0D701C6010C2E04C0B695A79524
:10283000979587950A94D2F780FF06C0B8018C2F30
:102840000E94F707019721F4219760F780E001C00B
:102850008C2FDF91CF911F910F91FF90EF90DF9020
:10286000CF900895CF93DF93EC010E94F313BE0144
:102870000E94F707DF91CF9108951F93CF93DF93C5
:10288000EB0190917201992321F0CB010E94321447
:1028900013C0882349F0CB010E94F313182F682F2F
:1028A000CE010E94981304C0CB010E94C713182FB9
:1028B000BE01812F0E94F707DF91CF911F910895EC
:1028C0008091D60185958595859508958091D6014D
:1028D0008770089598E0899F90011124262B2093FA
:1028E000D6010C94FA122091D60180958223809310
:1028F000D601982F977069F430E0482F082E000C0D
:10290000550B2417350729F08595859585950C94E9
:102910001B1308959091D601977081E009F480E02F
:102920000895E0911C01F0911D018091E2018083E6
:10293000E0911C01F0911D0190818091E101892BB2
:102940008083E0911C01F0911D0190818091E00154
:10295000892B80838091D701882381F0E0911C012D
:10296000F0911D019081892B808380911C019091B1
:102970001D010E94701581111092D70180911C01D8
:1029800090911D010C94590A8091E2010895909153
:10299000E201892B8093E201089580959091E201F4
:1029A00089238093E20108951092E20108959091A5
:1029B000E101892B8093E101089580959091E101D7
:1029C00089238093E10108951092E1010895909187
:1029D000E001892B8093E001089580959091E001BA
:1029E00089238093E00108951092E0010895809377
:1029F000D70108951092D70108958091D7010895C5
:102A000080E090E00E942C1D21E08D3E9E4F09F059
:102A100020E0822F089582E090E00C94241D83E052
:102A200090E00C94241D84E090E00C94241D682F09
:102A300084E090E00C94321DAB01BC018FE090E08B
:102A40000C94441DAB01BC0183E190E00C94441D47
:102A500060E070E0CB010C94221560E070E0CB01E7
:102A60000E941C150C9428156DEE7EEF80E090E01E
:102A70000E94501D60E082E090E00E94321D60E004
:102A800083E090E00E94321D1092D2011092D30197
:102A90001092D4011092D50160E084E090E00E9491
:102AA000321D60E085E090E00E94321D60E086E02B
:102AB00090E00E94321D6FEF87E090E00E94321D8F
:102AC00040E050E0BA0188E090E00E94441D60E0E0
:102AD0008DE090E00E94321D0C942D150C9434155D
:102AE000FC01329697E080E0915029F02191222359
:102AF000D9F38F5FF9CF08959C01FC0132969FEFC7
:102B000080E04191461789F09F3F19F4411101C0BF
:102B1000982F8F5F8630A9F79F3F39F0F901E90FB1
:102B2000F11D97FDFA95628308950895FC01329690
:102B300008962081261301C010823196E817F90704
:102B4000C1F708950C947C150C949615029626E016
:102B5000FC0111922A95E9F7089508950C94AD159A
:102B60000E94AE1580910A02843049F11092E4016E
:102B700020E488E190E00FB6F894A8958093600077
:102B80000FBE2093600080E00E9444060E94AE15B4
:102B900083B7817F846083BF83B7816083BF78946C
:102BA000889583B78E7F83BF0FB6F894A8958091E0
:102BB0006000886180936000109260000FBE0895ED
:102BC00008950895CF930E94E0150E9458050E9431
:102BD000E115C0E08C2F0E94BF05811104C0CF5FBA
:102BE000C830C1F701C081E0CF91089508950C94D9
:102BF000F6150E94C10E0E944D0A0E9444060C94D4
:102C0000F7151F920F920FB60F9211248F939F9377
:102C1000AF93BF938091E401811113C080910002B2
:102C200090910102A0910202B09103024196A11D70
:102C3000B11D8093000290930102A0930202B09311
:102C40000302BF91AF919F918F910F900FBE0F9094
:102C50001F90189582E084BD93E095BD9AEF97BDD3
:102C600080936E0008952FB7F894809100029091A0
:102C70000102A0910202B09103022FBF0895CF92EA
:102C8000DF92EF92FF920F931F932FB7F89440912A
:102C900000025091010260910202709103022FBF65
:102CA0006A017B01EE24FF248C0120E030E0C01695
:102CB000D106E206F30610F4415051099A01281B8F
:102CC000390BC9011F910F91FF90EF90DF90CF90CA
:102CD000089578941F920F920FB60F9211248F933C
:102CE0009F93AF93BF938091000290910102A091B6
:102CF0000202B09103020196A11DB11D8093000252
:102D000090930102A0930202B0930302BF91AF918E
:102D10009F918F910F900FBE0F901F90189587E78E
:102D200097E790930108809300089AE088E10FB636
:102D3000F894A895809360000FBE90936000FFCF39
:102D40000E940015811102C00E946E150E940B1591
:102D50008093E3010E94131590E090930502809305
:102D600004020E940F15682F70E080E090E00C9440
:102D700099128091ED010895089508950895CF93D3
:102D8000DF93EC010E945818823011F0843039F53D
:102D900081E08093E9008FEF9091E800815095FDEC
:102DA00006C095ED9A95F1F700008111F5CF80915D
:102DB000E80085FF14C040E050E068E070E0CE011C
:102DC0000E9475188091E8008E778093E80088E073
:102DD000FE01A5EEB1E001900D928A95E1F7DF9139
:102DE000CF91089580910902811109C00E940A1AA9
:102DF0000E94671A8091E20084608093E200089547
:102E0000109209020895089508950C94F91542E06E
:102E100061EC81E00C94841980910C02833009F4F8
:102E200053C030F4813071F0823009F48CC00895C1
:102E30008A3009F478C08B3009F45EC0893009F01B
:102E40009AC020C080910B02813A09F094C0809111
:102E5000E800877F8093E80080910F029091100234
:102E6000892B21F468E085EE91E003C060E080E00A
:102E700090E070E00E94C0188091E8008B7780930A
:102E8000E800089580910B02813209F074C08091AE
:102E90000F0290911002892B09F06DC08091E8001B
:102EA000877F8093E8008091E80082FD05C08091D3
:102EB0000A028111F8CF5FC08091F1008093ED018B
:102EC0008091E8008B7753C080910B02813A09F022
:102ED00052C080910F0290911002892B09F04BC0D3
:102EE0008091E800877F8093E8008091E80080FF70
:102EF000FCCF8091280136C080910B028132D9F538
:102F000080910F0290911002892BA9F58091E80021
:102F1000877F8093E8000E94B91980910D02809309
:102F200028010C94C10E80910B02813221F5809111
:102F3000E800877F8093E8000E94B91980910E0213
:102F40008093EE01089580910B02813AA1F4809163
:102F5000E800877F8093E8008091E80080FFFCCF45
:102F60008091EE018093F1008091E8008E7780934C
:102F7000E8000C94B919089584B7877F84BF0FB611
:102F8000F894A89580916000886180936000109209
:102F900060000FBE80E880936100109261000E9483
:102FA000970A0E940A1A0E94671A8091E2008460C0
:102FB0008093E20078940E94F61C0E949D0A8EE1A4
:102FC00091E00E94480A80910A02853069F40E94CB
:102FD000B015809108028823B1F30E94E21588237E
:102FE00091F30E945F18EFCF0E94A30AECCF0C94DC
:102FF000F917292F332723303105C1F05CF4213034
:10300000310579F022303105D1F582E290E024ECEF
:1030100032E039C02132310521F12232310541F14E
:103020002EC082E190E026EE32E02DC0992781305B
:10303000910571F02CF4892B11F5E0ECF2E00DC054
:103040008230910541F00397D1F4EAE9F2E005C03E
:10305000EEEAF2E002C0E0EAF2E0849190E09F0143
:1030600012C0672B61F489E090E026ED32E00BC0DE
:10307000672B29F480E490E028EF32E004C080E080
:1030800090E020E030E0FA01318320830895089534
:10309000CF93C82F0E944718C093EF01CF91089596
:1030A00080910A02843011F081E0089582E0089551
:1030B0008091EF01811102C00C945018089580E1B5
:1030C00089BD82E189BD09B400FEFDCF8091D800A1
:1030D0008F7D8093D8008091E00082608093E00033
:1030E0008091E00081FDFCCF0895CF92DF92EF92B6
:1030F000FF920F931F93CF93DF93EC018B016A0133
:103100000E94D819811133C0C114D10439F0F601DD
:1031100080819181081B190BC80FD91FE12CF12C5C
:103120000115110519F18091E80085FD16C0809107
:10313000E8008E778093E800C114D10449F0F601CD
:1031400080819181E80EF91EF182E08285E00FC056
:103150000E94D819882321F30AC089918093F10035
:1031600001501109FFEFEF1AFF0ADACF80E0DF917B
:10317000CF911F910F91FF90EF90DF90CF90089526
:1031800020911102309112022617370748F061157D
:10319000710539F42091E8002E772093E80001C0F2
:1031A000B90140E061157105A9F120910A022223BD
:1031B00009F443C0253009F442C02091E80023FD02
:1031C00040C02091E80022FD32C02091E80020FF9D
:1031D000E9CF4091F3002091F20030E0342BFC0164
:1031E000CF016115710559F02830310540F4819106
:1031F0008093F100615071092F5F3F4FF1CF41E0A3
:103200002830310509F040E02091E8002E77209326
:10321000E800C8CF4111C9CF0AC080910A028823B3
:1032200061F0853061F08091E80083FD0AC08091F3
:10323000E80082FFF2CF80E0089582E0089583E005
:10324000089581E00895209111023091120226170D
:10325000370748F06115710539F42091E8002E77A1
:103260002093E80001C0B901FC0120E0611571055F
:1032700091F180910A02882309F440C0853009F455
:103280003FC08091E80083FD3DC08091E80082FD51
:103290002FC08091E80080FFE9CF2091F30080915A
:1032A000F20090E0922B6115710559F0883091057C
:1032B00040F424912093F1003196615071090196F8
:1032C000F2CF21E0089709F020E08091E8008E77A6
:1032D0008093E800CBCF2111CCCF0AC080910A02A5
:1032E000882361F0853061F08091E80083FD0AC099
:1032F0008091E80082FFF2CF80E0089582E0089597
:1033000083E0089581E00895982F973058F59093C1
:10331000E900981739F07091EC002091ED00509180
:10332000F00003C0242F762F50E021FF19C0309108
:10333000EB003E7F3093EB003091ED003D7F30930A
:10334000ED003091EB0031603093EB007093EC00B6
:103350002093ED005093F0002091EE0027FF07C06E
:103360009F5FD3CF8F708093E90081E0089580E064
:10337000089580910B0287FF11C08091E80082FDC3
:1033800005C080910A028111F8CF11C08091E80038
:103390008B770BC080910A02882349F08091E80066
:1033A00080FFF8CF8091E8008E778093E800089541
:1033B0002091E4003091E50095E64091EC00842FE7
:1033C000817040FF22C08091E80080FD1CC0809188
:1033D0000A02882391F0853091F08091EB0085FD01
:1033E00010C04091E4005091E5004217530729F3C3
:1033F0009A01915011F784E0089582E0089583E0E6
:10340000089581E0089580E008954091E80042FF2A
:10341000DECF08950E94781A0E94801AE0EEF0E054
:10342000808181608083E8EDF0E080818F77808308
:1034300019BCA7EDB0E08C918E7F8C9380818F7E3C
:1034400080831092090208950F931F93CF93DF9307
:103450000E94781A0E94801AC8EDD0E088818F7788
:10346000888388818068888388818F7D888319BC60
:1034700010920A021092060210920802109207029D
:1034800000EE10E0F80180818B7F8083888181606D
:10349000888342E060E080E00E948419E1EEF0E081
:1034A00080818E7F8083E2EEF0E080818160808386
:1034B000808188608083F80180818E7F808388810D
:1034C00080618883DF91CF911F910F910895E8ED7E
:1034D000F0E080818F7E8083E7EDF0E08081816085
:1034E000808384E082BF81E0809309020C94241AD7
:1034F000E8EDF0E080818E7F80831092E2000895F5
:103500001092DA001092E10008951F920F920FB608
:103510000F9211242F933F934F935F936F937F9359
:103520008F939F93AF93BF93EF93FF938091E100AD
:1035300082FF0BC08091E20082FF07C08091E10012
:103540008B7F8093E1000E94F51C8091DA0080FF60
:103550001FC08091D80080FF1BC08091DA008E7F51
:103560008093DA008091D90080FF0DC080E189BD91
:1035700082E189BD09B400FEFDCF81E080930A029B
:103580000E94F21605C019BC10920A020E94001790
:103590008091E10080FF19C08091E20080FF15C09A
:1035A0008091E2008E7F8093E2008091E200806152
:1035B0008093E2008091D80080628093D80019BC8B
:1035C00085E080930A020E9404178091E10084FF45
:1035D00030C08091E20084FF2CC080E189BD82E18F
:1035E00089BD09B400FEFDCF8091D8008F7D809306
:1035F000D8008091E1008F7E8093E1008091E2000D
:103600008F7E8093E2008091E20081608093E200EF
:1036100080910602882311F084E007C08091E300C6
:1036200087FD02C081E001C083E080930A020E940E
:1036300005178091E10083FF29C08091E20083FF9C
:1036400025C08091E100877F8093E10082E0809334
:103650000A02109206028091E1008E7F8093E100C1
:103660008091E2008E7F8093E2008091E200806191
:103670008093E20042E060E080E00E948419809143
:10368000F00088608093F0000E940317FF91EF9193
:10369000BF91AF919F918F917F916F915F914F916A
:1036A0003F912F910F900FBE0F901F9018951F9272
:1036B0000F920FB60F9211242F933F934F935F9366
:1036C0006F937F938F939F93AF93BF93CF93DF932A
:1036D000EF93FF93C091E900CF708091EC00D82F59
:1036E000D17080FDD0E81092E9008091F000877FD2
:1036F0008093F00078940E949B1B1092E9008091C7
:10370000F00088608093F000CD2BCF70C093E9006B
:10371000FF91EF91DF91CF91BF91AF919F918F91E9
:103720007F916F915F914F913F912F910F900FBEBD
:103730000F901F9018951F93CF93DF93CDB7DEB7EF
:10374000AA970FB6F894DEBF0FBECDBFEBE0F2E054
:1037500088E08E0F9091F10091938E13FBCF0E9421
:103760000C178091E80083FF28C180910B02909193
:103770000C02492F50E04A30510508F01EC1FA01F1
:10378000E556FF4F0C94111D803821F0823809F066
:1037900014C108C08091070290910802992389F012
:1037A00082600FC080910F028F70873008F005C1D2
:1037B0008093E9008091EB0085FB882780F91092C7
:1037C000E9009091E800977F9093E8008093F100E2
:1037D0001092F100D0C0282F2D7F09F0EEC0882371
:1037E00019F0823061F0E9C080910D02813009F05A
:1037F000E4C0933009F080E0809308022EC08091ED
:103800000D0281112AC080910F028F702FEF280FB7
:10381000263008F0D2C08093E9002091EB0020FF11
:103820001CC0933021F48091EB00806214C0909111
:10383000EB0090619093EB0021E030E0A90102C021
:10384000440F551F8A95E2F74093EA001092EA0070
:103850008091EB0088608093EB001092E9008091EA
:10386000E800877F8093E8000E94B919A6C0811103
:10387000A4C010910D021F778091E3008078812B06
:103880008093E3008091E800877F8093E8000E94A6
:10389000B9198091E80080FFFCCF8091E300806837
:1038A0008093E300111102C082E001C083E08093A5
:1038B0000A0283C08058823008F07FC080910D02D8
:1038C00090910E028C3D53E0950779F583E08A8351
:1038D0008AE289834FB7F894DE01139620E03EE038
:1038E00051E2E32FF0E050935700E49120FF03C032
:1038F000E295EF703F5FEF708E2F90E0EA3010F0AE
:10390000C79601C0C0968D939D932F5F243149F7D0
:103910004FBF8091E800877F8093E8006AE270E003
:10392000CE0101960E94C01815C060910F027091DF
:103930001002AE014F5F5F4F0E94F717BC01892B49
:10394000E1F19091E800977F9093E80089819A8156
:103950000E9423198091E8008B778093E8002DC0A6
:10396000803859F58091E800877F8093E800809146
:1039700006028093F1008091E8008E7773CF811169
:103980001CC090910D029230C0F48091E800877FB6
:103990008093E800909306020E94B9198091060274
:1039A000811106C08091E30087FD02C081E001C063
:1039B00084E080930A020E9407178091E80083FF49
:1039C0000AC08091E800877F8093E8008091EB0037
:1039D00080628093EB00AA960FB6F894DEBF0FBE0C
:1039E000CDBFDF91CF911F9108950895CF9380911E
:1039F0000A028823A1F0C091E900CF709091EC00F9
:103A0000892F817090FD80E8C82B1092E900809189
:103A1000E80083FD0E949B1BCF70C093E900CF910B
:103A20000895EE0FFF1F0590F491E02D0994FB011E
:103A3000DC0104C08D910190801921F44150504067
:103A4000C8F7881B990B0895F999FECF92BD81BDE7
:103A5000F89A992780B50895A8E1B0E042E050E0D7
:103A60000C94581D262FF999FECF92BD81BDF89A6E
:103A7000019700B4021639F01FBA20BD0FB6F894B2
:103A8000FA9AF99A0FBE08950396272F0E94331DC4
:103A90000E94321D252F0E94331D242F0C94331DAC
:103AA0000196272F0E94331D0C94321DDC01CB019F
:103AB000FC01F999FECF06C0F2BDE1BDF89A31963E
:103AC00000B40D9241505040B8F70895F894FFCFDC
:103AD000050153010000000151015301045401018B
:103AE00051015201000000045801FFFFD801B9162E
:103AF000BF16BC16BD16BE1601F4F5F6F73133320B
:083B0000946697C60000000066
:00000001FF
